{
  "contractName": "Election",
  "abi": [
    {
      "inputs": [],
      "stateMutability": "nonpayable",
      "type": "constructor"
    },
    {
      "anonymous": false,
      "inputs": [
        {
          "indexed": false,
          "internalType": "uint256",
          "name": "id",
          "type": "uint256"
        },
        {
          "indexed": false,
          "internalType": "string",
          "name": "name",
          "type": "string"
        },
        {
          "indexed": false,
          "internalType": "uint256",
          "name": "voteCount",
          "type": "uint256"
        }
      ],
      "name": "ElectionUpdated",
      "type": "event"
    },
    {
      "inputs": [],
      "name": "candidateCount",
      "outputs": [
        {
          "internalType": "uint256",
          "name": "",
          "type": "uint256"
        }
      ],
      "stateMutability": "view",
      "type": "function",
      "constant": true
    },
    {
      "inputs": [
        {
          "internalType": "uint256",
          "name": "",
          "type": "uint256"
        }
      ],
      "name": "candidates",
      "outputs": [
        {
          "internalType": "uint256",
          "name": "id",
          "type": "uint256"
        },
        {
          "internalType": "string",
          "name": "name",
          "type": "string"
        },
        {
          "internalType": "uint256",
          "name": "voteCount",
          "type": "uint256"
        }
      ],
      "stateMutability": "view",
      "type": "function",
      "constant": true
    },
    {
      "inputs": [
        {
          "internalType": "address",
          "name": "",
          "type": "address"
        }
      ],
      "name": "voteEligible",
      "outputs": [
        {
          "internalType": "bool",
          "name": "",
          "type": "bool"
        }
      ],
      "stateMutability": "view",
      "type": "function",
      "constant": true
    },
    {
      "inputs": [
        {
          "internalType": "uint256",
          "name": "_id",
          "type": "uint256"
        }
      ],
      "name": "Vote",
      "outputs": [],
      "stateMutability": "nonpayable",
      "type": "function"
    }
  ],
  "bytecode": "0x60806040523480156200001157600080fd5b50620000586040518060400160405280600c81526020017f42617261636b204f62616d610000000000000000000000000000000000000000815250620000a460201b60201c565b6200009e6040518060400160405280600981526020017f4a6f6520426964656e0000000000000000000000000000000000000000000000815250620000a460201b60201c565b620002c4565b600080815480929190620000b89062000218565b919050555060405180606001604052806000548152602001828152602001600081525060026000805481526020019081526020016000206000820151816000015560208201518160010190805190602001906200011792919062000128565b506040820151816002015590505050565b8280546200013690620001e2565b90600052602060002090601f0160209004810192826200015a5760008555620001a6565b82601f106200017557805160ff1916838001178555620001a6565b82800160010185558215620001a6579182015b82811115620001a557825182559160200191906001019062000188565b5b509050620001b59190620001b9565b5090565b5b80821115620001d4576000816000905550600101620001ba565b5090565b6000819050919050565b60006002820490506001821680620001fb57607f821691505b6020821081141562000212576200021162000295565b5b50919050565b60006200022582620001d8565b91507fffffffffffffffffffffffffffffffffffffffffffffffffffffffffffffffff8214156200025b576200025a62000266565b5b600182019050919050565b7f4e487b7100000000000000000000000000000000000000000000000000000000600052601160045260246000fd5b7f4e487b7100000000000000000000000000000000000000000000000000000000600052602260045260246000fd5b61087f80620002d46000396000f3fe608060405234801561001057600080fd5b506004361061004c5760003560e01c80633477ee2e14610051578063a9a981a314610083578063dcd6a5cd146100a1578063de1193da146100bd575b600080fd5b61006b600480360381019061006691906103ee565b6100ed565b60405161007a939291906105aa565b60405180910390f35b61008b61019f565b604051610098919061058f565b60405180910390f35b6100bb60048036038101906100b691906103ee565b6101a5565b005b6100d760048036038101906100d291906103c5565b61037b565b6040516100e49190610534565b60405180910390f35b600260205280600052604060002060009150905080600001549080600101805461011690610728565b80601f016020809104026020016040519081016040528092919081815260200182805461014290610728565b801561018f5780601f106101645761010080835404028352916020019161018f565b820191906000526020600020905b81548152906001019060200180831161017257829003601f168201915b5050505050908060020154905083565b60005481565b600160003373ffffffffffffffffffffffffffffffffffffffff1673ffffffffffffffffffffffffffffffffffffffff16815260200190815260200160002060009054906101000a900460ff1615610232576040517f08c379a00000000000000000000000000000000000000000000000000000000081526004016102299061056f565b60405180910390fd5b60006002600083815260200190815260200160002060000154141561028c576040517f08c379a00000000000000000000000000000000000000000000000000000000081526004016102839061054f565b60405180910390fd5b60016002600083815260200190815260200160002060020160008282546102b39190610657565b925050819055506000600160003373ffffffffffffffffffffffffffffffffffffffff1673ffffffffffffffffffffffffffffffffffffffff16815260200190815260200160002060006101000a81548160ff0219169083151502179055507f84780759e4da390680129d9b6db388c3ed74f76a93ee712080b7d8713191895181600260008481526020019081526020016000206001016002600085815260200190815260200160002060020154604051610370939291906105e8565b60405180910390a150565b60016020528060005260406000206000915054906101000a900460ff1681565b6000813590506103aa8161081b565b92915050565b6000813590506103bf81610832565b92915050565b6000602082840312156103d757600080fd5b60006103e58482850161039b565b91505092915050565b60006020828403121561040057600080fd5b600061040e848285016103b0565b91505092915050565b610420816106bf565b82525050565b60006104318261063b565b61043b8185610646565b935061044b8185602086016106f5565b610454816107b8565b840191505092915050565b6000815461046c81610728565b6104768186610646565b9450600182166000811461049157600181146104a3576104d6565b60ff19831686526020860193506104d6565b6104ac85610626565b60005b838110156104ce578154818901526001820191506020810190506104af565b808801955050505b50505092915050565b60006104ec601583610646565b91506104f7826107c9565b602082019050919050565b600061050f601683610646565b915061051a826107f2565b602082019050919050565b61052e816106eb565b82525050565b60006020820190506105496000830184610417565b92915050565b60006020820190508181036000830152610568816104df565b9050919050565b6000602082019050818103600083015261058881610502565b9050919050565b60006020820190506105a46000830184610525565b92915050565b60006060820190506105bf6000830186610525565b81810360208301526105d18185610426565b90506105e06040830184610525565b949350505050565b60006060820190506105fd6000830186610525565b818103602083015261060f818561045f565b905061061e6040830184610525565b949350505050565b60008190508160005260206000209050919050565b600081519050919050565b600082825260208201905092915050565b6000610662826106eb565b915061066d836106eb565b9250827fffffffffffffffffffffffffffffffffffffffffffffffffffffffffffffffff038211156106a2576106a161075a565b5b828201905092915050565b60006106b8826106cb565b9050919050565b60008115159050919050565b600073ffffffffffffffffffffffffffffffffffffffff82169050919050565b6000819050919050565b60005b838110156107135780820151818401526020810190506106f8565b83811115610722576000848401525b50505050565b6000600282049050600182168061074057607f821691505b6020821081141561075457610753610789565b5b50919050565b7f4e487b7100000000000000000000000000000000000000000000000000000000600052601160045260246000fd5b7f4e487b7100000000000000000000000000000000000000000000000000000000600052602260045260246000fd5b6000601f19601f8301169050919050565b7f54686520494420646f6573206e6f742065786973740000000000000000000000600082015250565b7f596f75206861766520616c726561647920566f74656400000000000000000000600082015250565b610824816106ad565b811461082f57600080fd5b50565b61083b816106eb565b811461084657600080fd5b5056fea2646970667358221220af850f302a474e666aea47b610ae5ff6e3d4bf70e4cf9cc1076d1a03b21c3ec864736f6c63430008040033",
  "immutableReferences": {},
  "source": "// SPDX-License-Identifier: MIT\npragma solidity >=0.4.22 <0.9.0;\n\ncontract Election {\n    // Create Candidate Schema\n    struct Candidate {\n        uint id; \n        string name;\n        uint voteCount;\n    }\n    \n    // Candidate Count\n    uint public candidateCount;\n    \n    // Store Address voting eligibility\n    mapping(address => bool) public voteEligible;\n\n    // Store Candidates\n    mapping(uint => Candidate) public candidates;\n    \n    // Event that's emitted when the election has been updated\n    event ElectionUpdated (uint id, string name, uint voteCount);\n    \n    \n    constructor() {\n        // Code to initiate on contract deployment\n        addCandidate(\"Barack Obama\");\n        addCandidate('Joe Biden');\n    }\n    \n    // add candidates\n    function addCandidate(string memory name) private {\n        candidateCount++;\n        candidates[candidateCount] = Candidate(candidateCount, name, 0);\n    }\n    \n    function Vote(uint _id) public {\n        // Require the voter is eligible to vote\n        require(!voteEligible[msg.sender], \"You have already Voted\");\n        // Require that the candidate ID that the voter is targeting is valid\n        require(candidates[_id].id != 0, \"The ID does not exist\");\n        // Increment the vote count for the specified candidate\n        candidates[_id].voteCount+=1;\n        // Change vote eligibility to false after msg.sender has Voted\n        voteEligible[msg.sender] = false;\n        // Emit the Election Update event when the voter's vote  has been made\n        emit ElectionUpdated(_id, candidates[_id].name, candidates[_id].voteCount);\n    }\n}",
  "sourcePath": "/Users/marleykanui/Desktop/kanui-vote/contracts/Election.sol",
  "compiler": {
    "name": "solc",
    "version": "0.8.4+commit.c7e474f2.Emscripten.clang"
  },
  "schemaVersion": "3.4.1",
  "updatedAt": "2021-05-26T21:47:33.245Z",
  "networkType": "ethereum",
  "devdoc": {
    "kind": "dev",
    "methods": {},
    "version": 1
  },
  "userdoc": {
    "kind": "user",
    "methods": {},
    "version": 1
  }
}